{
  "contractName": "Resale",
  "abi": [
    {
      "constant": true,
      "inputs": [],
      "name": "name",
      "outputs": [
        {
          "name": "",
          "type": "string"
        }
      ],
      "payable": false,
      "stateMutability": "view",
      "type": "function",
      "signature": "0x06fdde03"
    },
    {
      "constant": false,
      "inputs": [],
      "name": "withdrawBalance",
      "outputs": [],
      "payable": true,
      "stateMutability": "payable",
      "type": "function",
      "signature": "0x5fd8c710"
    },
    {
      "constant": true,
      "inputs": [
        {
          "name": "tokenId",
          "type": "uint256"
        }
      ],
      "name": "ownerOf",
      "outputs": [
        {
          "name": "",
          "type": "address"
        }
      ],
      "payable": false,
      "stateMutability": "view",
      "type": "function",
      "signature": "0x6352211e"
    },
    {
      "constant": true,
      "inputs": [],
      "name": "symbol",
      "outputs": [
        {
          "name": "",
          "type": "string"
        }
      ],
      "payable": false,
      "stateMutability": "view",
      "type": "function",
      "signature": "0x95d89b41"
    },
    {
      "constant": false,
      "inputs": [
        {
          "name": "isbn",
          "type": "uint256"
        }
      ],
      "name": "primaryBuy",
      "outputs": [
        {
          "name": "",
          "type": "bool"
        }
      ],
      "payable": true,
      "stateMutability": "payable",
      "type": "function",
      "signature": "0xb118e708"
    },
    {
      "constant": false,
      "inputs": [
        {
          "name": "_title",
          "type": "string"
        },
        {
          "name": "_author",
          "type": "string"
        },
        {
          "name": "_ipfshash",
          "type": "string"
        },
        {
          "name": "_isbn",
          "type": "uint256"
        },
        {
          "name": "_price",
          "type": "uint256"
        },
        {
          "name": "_saleCommission",
          "type": "uint256"
        }
      ],
      "name": "addBookDetails",
      "outputs": [],
      "payable": false,
      "stateMutability": "nonpayable",
      "type": "function",
      "signature": "0xd2efebbc"
    },
    {
      "anonymous": false,
      "inputs": [
        {
          "indexed": true,
          "name": "resalePrice",
          "type": "uint256"
        },
        {
          "indexed": true,
          "name": "tokenId",
          "type": "uint256"
        }
      ],
      "name": "ResalePriceSet",
      "type": "event",
      "signature": "0xb6743e28146537941f1eba37e49c80ceacefc82ea9213aee69740281fdf1c684"
    },
    {
      "anonymous": false,
      "inputs": [
        {
          "indexed": true,
          "name": "from",
          "type": "address"
        },
        {
          "indexed": true,
          "name": "to",
          "type": "address"
        },
        {
          "indexed": true,
          "name": "tokenId",
          "type": "uint256"
        }
      ],
      "name": "Transfer",
      "type": "event",
      "signature": "0xddf252ad1be2c89b69c2b068fc378daa952ba7f163c4a11628f55a4df523b3ef"
    },
    {
      "constant": true,
      "inputs": [
        {
          "name": "owner",
          "type": "address"
        }
      ],
      "name": "balanceOf",
      "outputs": [
        {
          "name": "",
          "type": "uint256"
        }
      ],
      "payable": false,
      "stateMutability": "view",
      "type": "function",
      "signature": "0x70a08231"
    },
    {
      "constant": false,
      "inputs": [
        {
          "name": "newPrice",
          "type": "uint256"
        },
        {
          "name": "tokenId",
          "type": "uint256"
        }
      ],
      "name": "setResalePrice",
      "outputs": [],
      "payable": false,
      "stateMutability": "nonpayable",
      "type": "function",
      "signature": "0xf7e2aaab"
    },
    {
      "constant": false,
      "inputs": [
        {
          "name": "tokenId",
          "type": "uint256"
        }
      ],
      "name": "buyFromIndividual",
      "outputs": [],
      "payable": true,
      "stateMutability": "payable",
      "type": "function",
      "signature": "0xe712eb58"
    },
    {
      "constant": false,
      "inputs": [
        {
          "name": "_to",
          "type": "address"
        },
        {
          "name": "_tokenId",
          "type": "uint256"
        }
      ],
      "name": "transfer",
      "outputs": [],
      "payable": false,
      "stateMutability": "nonpayable",
      "type": "function",
      "signature": "0xa9059cbb"
    },
    {
      "constant": true,
      "inputs": [
        {
          "name": "tokenId",
          "type": "uint256"
        }
      ],
      "name": "viewTokenData",
      "outputs": [
        {
          "name": "",
          "type": "string"
        }
      ],
      "payable": false,
      "stateMutability": "view",
      "type": "function",
      "signature": "0x254cc981"
    }
  ],
  "bytecode": "0x608060405234801561001057600080fd5b50611d5a806100206000396000f3fe6080604052600436106100af576000357c0100000000000000000000000000000000000000000000000000000000900463ffffffff16806306fdde03146100b4578063254cc981146101445780635fd8c710146101f85780636352211e1461020257806370a082311461027d57806395d89b41146102e2578063a9059cbb14610372578063b118e708146103cd578063d2efebbc14610413578063e712eb5814610627578063f7e2aaab14610655575b600080fd5b3480156100c057600080fd5b506100c961069a565b6040518080602001828103825283818151815260200191508051906020019080838360005b838110156101095780820151818401526020810190506100ee565b50505050905090810190601f1680156101365780820380516001836020036101000a031916815260200191505b509250505060405180910390f35b34801561015057600080fd5b5061017d6004803603602081101561016757600080fd5b81019080803590602001909291905050506106d7565b6040518080602001828103825283818151815260200191508051906020019080838360005b838110156101bd5780820151818401526020810190506101a2565b50505050905090810190601f1680156101ea5780820380516001836020036101000a031916815260200191505b509250505060405180910390f35b6102006108dd565b005b34801561020e57600080fd5b5061023b6004803603602081101561022557600080fd5b8101908080359060200190929190505050610a88565b604051808273ffffffffffffffffffffffffffffffffffffffff1673ffffffffffffffffffffffffffffffffffffffff16815260200191505060405180910390f35b34801561028957600080fd5b506102cc600480360360208110156102a057600080fd5b81019080803573ffffffffffffffffffffffffffffffffffffffff169060200190929190505050610b06565b6040518082815260200191505060405180910390f35b3480156102ee57600080fd5b506102f7610bfa565b6040518080602001828103825283818151815260200191508051906020019080838360005b8381101561033757808201518184015260208101905061031c565b50505050905090810190601f1680156103645780820380516001836020036101000a031916815260200191505b509250505060405180910390f35b34801561037e57600080fd5b506103cb6004803603604081101561039557600080fd5b81019080803573ffffffffffffffffffffffffffffffffffffffff16906020019092919080359060200190929190505050610c37565b005b6103f9600480360360208110156103e357600080fd5b8101908080359060200190929190505050610e76565b604051808215151515815260200191505060405180910390f35b34801561041f57600080fd5b50610625600480360360c081101561043657600080fd5b810190808035906020019064010000000081111561045357600080fd5b82018360208201111561046557600080fd5b8035906020019184600183028401116401000000008311171561048757600080fd5b91908080601f016020809104026020016040519081016040528093929190818152602001838380828437600081840152601f19601f820116905080830192505050505050509192919290803590602001906401000000008111156104ea57600080fd5b8201836020820111156104fc57600080fd5b8035906020019184600183028401116401000000008311171561051e57600080fd5b91908080601f016020809104026020016040519081016040528093929190818152602001838380828437600081840152601f19601f8201169050808301925050505050505091929192908035906020019064010000000081111561058157600080fd5b82018360208201111561059357600080fd5b803590602001918460018302840111640100000000831117156105b557600080fd5b91908080601f016020809104026020016040519081016040528093929190818152602001838380828437600081840152601f19601f8201169050808301925050505050505091929192908035906020019092919080359060200190929190803590602001909291905050506110a5565b005b6106536004803603602081101561063d57600080fd5b81019080803590602001909291905050506111b4565b005b34801561066157600080fd5b506106986004803603604081101561067857600080fd5b81019080803590602001909291908035906020019092919050505061168b565b005b60606040805190810160405280600d81526020017f44436f6e74656e74546f6b656e00000000000000000000000000000000000000815250905090565b60606106e2826117db565b1515610756576040517f08c379a00000000000000000000000000000000000000000000000000000000081526004018080602001828103825260148152602001807f546f6b656e20646f65736e27742065786973742100000000000000000000000081525060200191505060405180910390fd5b3373ffffffffffffffffffffffffffffffffffffffff1661077683610a88565b73ffffffffffffffffffffffffffffffffffffffff16141515610827576040517f08c379a00000000000000000000000000000000000000000000000000000000081526004018080602001828103825260248152602001807f596f7520617265206e6f7420746865206f776e6572206f66207468697320746f81526020017f6b656e210000000000000000000000000000000000000000000000000000000081525060400191505060405180910390fd5b600860008381526020019081526020016000206000018054600181600116156101000203166002900480601f0160208091040260200160405190810160405280929190818152602001828054600181600116156101000203166002900480156108d15780601f106108a6576101008083540402835291602001916108d1565b820191906000526020600020905b8154815290600101906020018083116108b457829003601f168201915b50505050509050919050565b6000600260003373ffffffffffffffffffffffffffffffffffffffff1673ffffffffffffffffffffffffffffffffffffffff16815260200190815260200160002054141515156109bb576040517f08c379a00000000000000000000000000000000000000000000000000000000081526004018080602001828103825260268152602001807f596f7520646f6e2774206861766520616e792062616c616e636520746f20776981526020017f746864726177000000000000000000000000000000000000000000000000000081525060400191505060405180910390fd5b3373ffffffffffffffffffffffffffffffffffffffff166108fc600260003373ffffffffffffffffffffffffffffffffffffffff1673ffffffffffffffffffffffffffffffffffffffff168152602001908152602001600020549081150290604051600060405180830381858888f19350505050158015610a40573d6000803e3d6000fd5b506000600260003373ffffffffffffffffffffffffffffffffffffffff1673ffffffffffffffffffffffffffffffffffffffff16815260200190815260200160002081905550565b6000806003600084815260200190815260200160002060009054906101000a900473ffffffffffffffffffffffffffffffffffffffff169050600073ffffffffffffffffffffffffffffffffffffffff168173ffffffffffffffffffffffffffffffffffffffff1614151515610afd57600080fd5b80915050919050565b60008073ffffffffffffffffffffffffffffffffffffffff168273ffffffffffffffffffffffffffffffffffffffff1614151515610bac576040517f08c379a00000000000000000000000000000000000000000000000000000000081526004018080602001828103825260168152602001807f496e76616c6964206164647265737320676976656e210000000000000000000081525060200191505060405180910390fd5b610bf3600560008473ffffffffffffffffffffffffffffffffffffffff1673ffffffffffffffffffffffffffffffffffffffff16815260200190815260200160002061184d565b9050919050565b60606040805190810160405280600381526020017f4443540000000000000000000000000000000000000000000000000000000000815250905090565b3373ffffffffffffffffffffffffffffffffffffffff16610c5782610a88565b73ffffffffffffffffffffffffffffffffffffffff16141515610d08576040517f08c379a00000000000000000000000000000000000000000000000000000000081526004018080602001828103825260248152602001807f596f7520617265206e6f7420746865206f776e6572206f66207468697320746f81526020017f6b656e210000000000000000000000000000000000000000000000000000000081525060400191505060405180910390fd5b816003600083815260200190815260200160002060006101000a81548173ffffffffffffffffffffffffffffffffffffffff021916908373ffffffffffffffffffffffffffffffffffffffff160217905550610da1600560003373ffffffffffffffffffffffffffffffffffffffff1673ffffffffffffffffffffffffffffffffffffffff16815260200190815260200160002061185b565b610de8600560008473ffffffffffffffffffffffffffffffffffffffff1673ffffffffffffffffffffffffffffffffffffffff16815260200190815260200160002061187e565b60006007600083815260200190815260200160002060010160006101000a81548160ff021916908315150217905550808273ffffffffffffffffffffffffffffffffffffffff163373ffffffffffffffffffffffffffffffffffffffff167fddf252ad1be2c89b69c2b068fc378daa952ba7f163c4a11628f55a4df523b3ef60405160405180910390a45050565b60008073ffffffffffffffffffffffffffffffffffffffff1660008084815260200190815260200160002060030160009054906101000a900473ffffffffffffffffffffffffffffffffffffffff1673ffffffffffffffffffffffffffffffffffffffff1614151515610f51576040517f08c379a00000000000000000000000000000000000000000000000000000000081526004018080602001828103825260158152602001807f4953424e20646f6573206e6f742065786973742021000000000000000000000081525060200191505060405180910390fd5b600160008381526020019081526020016000205434141515611001576040517f08c379a000000000000000000000000000000000000000000000000000000000815260040180806020018281038252603f8152602001807f496e73756666696369656e742066756e6473202120506c65617365207061792081526020017f746865207072696365206173207365742062792074686520617574686f722e0081525060400191505060405180910390fd5b600061100c83611894565b9050611019338285611900565b346002600080600087815260200190815260200160002060030160009054906101000a900473ffffffffffffffffffffffffffffffffffffffff1673ffffffffffffffffffffffffffffffffffffffff1673ffffffffffffffffffffffffffffffffffffffff168152602001908152602001600020600082825401925050819055506001915050919050565b8560008085815260200190815260200160002060000190805190602001906110ce929190611c02565b508460008085815260200190815260200160002060010190805190602001906110f8929190611c02565b50836000808581526020019081526020016000206002019080519060200190611122929190611c02565b503360008085815260200190815260200160002060030160006101000a81548173ffffffffffffffffffffffffffffffffffffffff021916908373ffffffffffffffffffffffffffffffffffffffff1602179055508060008085815260200190815260200160002060040181905550600182026001600085815260200190815260200160002081905550505050505050565b600115156007600083815260200190815260200160002060010160009054906101000a900460ff161515141515611279576040517f08c379a00000000000000000000000000000000000000000000000000000000081526004018080602001828103825260308152602001807f5468697320746f6b656e206861736e2774206265656e2070757420666f72207381526020017f616c6520627920746865206f776e65720000000000000000000000000000000081525060400191505060405180910390fd5b60076000828152602001908152602001600020600001543414151561132c576040517f08c379a000000000000000000000000000000000000000000000000000000000815260040180806020018281038252603a8152602001807f596f757220707269636520646f65736e2774206d61746368207468652070726981526020017f636520676976656e2062792074686520746f6b656e4f776e657200000000000081525060400191505060405180910390fd5b6064600080600760008581526020019081526020016000206002015481526020019081526020016000206004015481151561136357fe5b043402600260008060006007600087815260200190815260200160002060020154815260200190815260200160002060030160009054906101000a900473ffffffffffffffffffffffffffffffffffffffff1673ffffffffffffffffffffffffffffffffffffffff1673ffffffffffffffffffffffffffffffffffffffff1681526020019081526020016000206000828254019250508190555060006003600083815260200190815260200160002060009054906101000a900473ffffffffffffffffffffffffffffffffffffffff1690508073ffffffffffffffffffffffffffffffffffffffff166108fc6064600080600760008881526020019081526020016000206002015481526020019081526020016000206004015481151561148657fe5b04340234039081150290604051600060405180830381858888f193505050501580156114b6573d6000803e3d6000fd5b50611531600560006003600086815260200190815260200160002060009054906101000a900473ffffffffffffffffffffffffffffffffffffffff1673ffffffffffffffffffffffffffffffffffffffff1673ffffffffffffffffffffffffffffffffffffffff16815260200190815260200160002061185b565b611578600560003373ffffffffffffffffffffffffffffffffffffffff1673ffffffffffffffffffffffffffffffffffffffff16815260200190815260200160002061187e565b813373ffffffffffffffffffffffffffffffffffffffff166003600085815260200190815260200160002060009054906101000a900473ffffffffffffffffffffffffffffffffffffffff1673ffffffffffffffffffffffffffffffffffffffff167fddf252ad1be2c89b69c2b068fc378daa952ba7f163c4a11628f55a4df523b3ef60405160405180910390a4336003600084815260200190815260200160002060006101000a81548173ffffffffffffffffffffffffffffffffffffffff021916908373ffffffffffffffffffffffffffffffffffffffff16021790555060006007600084815260200190815260200160002060010160006101000a81548160ff0219169083151502179055505050565b3373ffffffffffffffffffffffffffffffffffffffff166116ab82610a88565b73ffffffffffffffffffffffffffffffffffffffff1614151561175c576040517f08c379a00000000000000000000000000000000000000000000000000000000081526004018080602001828103825260248152602001807f596f7520617265206e6f7420746865206f776e6572206f66207468697320746f81526020017f6b656e210000000000000000000000000000000000000000000000000000000081525060400191505060405180910390fd5b60018202600760008381526020019081526020016000206000018190555060016007600083815260200190815260200160002060010160006101000a81548160ff02191690831515021790555080827fb6743e28146537941f1eba37e49c80ceacefc82ea9213aee69740281fdf1c68460405160405180910390a35050565b6000806003600084815260200190815260200160002060009054906101000a900473ffffffffffffffffffffffffffffffffffffffff169050600073ffffffffffffffffffffffffffffffffffffffff168173ffffffffffffffffffffffffffffffffffffffff161415915050919050565b600081600001549050919050565b61187360018260000154611be090919063ffffffff16565b816000018190555050565b6001816000016000828254019250508190555050565b6000600660008154809291906001019190505550600062989680834260065460405160200180848152602001838152602001828152602001935050505060405160208183030381529060405280519060200120600190048115156118f457fe5b06905080915050919050565b600073ffffffffffffffffffffffffffffffffffffffff168373ffffffffffffffffffffffffffffffffffffffff16141515156119a5576040517f08c379a00000000000000000000000000000000000000000000000000000000081526004018080602001828103825260128152602001807f41646472657373283029204572726f722021000000000000000000000000000081525060200191505060405180910390fd5b826003600084815260200190815260200160002060006101000a81548173ffffffffffffffffffffffffffffffffffffffff021916908373ffffffffffffffffffffffffffffffffffffffff160217905550611a00826117db565b151515611a75576040517f08c379a00000000000000000000000000000000000000000000000000000000081526004018080602001828103825260198152602001807f546f6b656e20494420646f6573206e6f7420657869737420210000000000000081525060200191505060405180910390fd5b611abc600560008573ffffffffffffffffffffffffffffffffffffffff1673ffffffffffffffffffffffffffffffffffffffff16815260200190815260200160002061187e565b6001600082815260200190815260200160002054600760008481526020019081526020016000206000018190555060006007600084815260200190815260200160002060010160006101000a81548160ff021916908315150217905550806007600084815260200190815260200160002060020181905550600080828152602001908152602001600020600201600860008481526020019081526020016000206000019080546001816001161561010002031660029004611b7e929190611c82565b50818373ffffffffffffffffffffffffffffffffffffffff16600073ffffffffffffffffffffffffffffffffffffffff167fddf252ad1be2c89b69c2b068fc378daa952ba7f163c4a11628f55a4df523b3ef60405160405180910390a4505050565b6000828211151515611bf157600080fd5b600082840390508091505092915050565b828054600181600116156101000203166002900490600052602060002090601f016020900481019282601f10611c4357805160ff1916838001178555611c71565b82800160010185558215611c71579182015b82811115611c70578251825591602001919060010190611c55565b5b509050611c7e9190611d09565b5090565b828054600181600116156101000203166002900490600052602060002090601f016020900481019282601f10611cbb5780548555611cf8565b82800160010185558215611cf857600052602060002091601f016020900482015b82811115611cf7578254825591600101919060010190611cdc565b5b509050611d059190611d09565b5090565b611d2b91905b80821115611d27576000816000905550600101611d0f565b5090565b9056fea165627a7a723058206968c655f2fd54106ae25ea878b41bafb54ed7386116e622b2b956b52247a79f0029",
  "source": "pragma solidity ^0.5.0;\r\nimport \"./Tokenize.sol\";\r\n\r\ncontract Resale is Tokenize{\r\n\r\n\r\n    //TO DO: As user logs in, he needs to see his current libraby, without sacrificing privacy.\r\n    \r\n    /*\r\n    gotta see how to incorporate this fruitfully\r\n    constructor () public {\r\n        // register the supported interfaces to conform to ERC721 via ERC165\r\n        _registerInterface(_INTERFACE_ID_ERC721);\r\n    }\r\n    */\r\n\r\n    event ResalePriceSet(uint256 indexed resalePrice, uint256 indexed tokenId);\r\n\r\n\r\n    function balanceOf(address owner) public view returns (uint256) {\r\n        require(owner != address(0), \"Invalid address given!\");\r\n        return _ownedTokensCount[owner].current();\r\n    }\r\n\r\n\r\n\r\n    //RESALE CODE BEGINS\r\n            \r\n    function setResalePrice(uint256 newPrice, uint256 tokenId) public{\r\n        require(ownerOf(tokenId)==msg.sender, \"You are not the owner of this token!\");\r\n        reSale[tokenId].resalePrice = newPrice*1 wei;\r\n        reSale[tokenId].isUpForResale = true;\r\n        emit ResalePriceSet(newPrice, tokenId);\r\n    }\r\n\r\n\r\n    //this is a one-on-one transaction. Needs to be an auction in future\r\n    function buyFromIndividual(uint256 tokenId) public payable{\r\n        //works only if the given token is up for sale\r\n        require(reSale[tokenId].isUpForResale == true, \"This token hasn't been put for sale by the owner\");\r\n        \r\n        //set to a static value. This becomes an auction in future versions\r\n        require(msg.value == reSale[tokenId].resalePrice, \"Your price doesn't match the price given by the tokenOwner\");\r\n\r\n        //Finding the commissionPercent from fileinfo, and then finding the concrete value of it \r\n        //from msg.value and then storing in publisherBalance \r\n        publisherBalance[fileinfo[reSale[tokenId].ISBN].publisherAddress] += msg.value*((fileinfo[reSale[tokenId].ISBN].saleCommission)/100);\r\n\r\n        //finding the seller's cut, and instantly transferring it to the seller \r\n        address payable sendTo;\r\n        sendTo = address(uint160(_tokenOwner[tokenId]));       \r\n        sendTo.transfer(msg.value - (msg.value*((fileinfo[reSale[tokenId].ISBN].saleCommission)/100)));\r\n        //updating token balances for both seller and buyer\r\n        _ownedTokensCount[_tokenOwner[tokenId]].decrement();\r\n        _ownedTokensCount[msg.sender].increment();\r\n        //transfer of baton\r\n        emit Transfer(_tokenOwner[tokenId], msg.sender, tokenId);\r\n        _tokenOwner[tokenId] = msg.sender;\r\n        reSale[tokenId].isUpForResale = false;\r\n    }\r\n\r\n    //To transfer a token freely to an address. Only owner of the said token can do it.\r\n    function transfer(address _to, uint256 _tokenId) public{\r\n        require(ownerOf(_tokenId)==msg.sender, \"You are not the owner of this token!\");\r\n        _tokenOwner[_tokenId] = _to;\r\n        _ownedTokensCount[msg.sender].decrement();\r\n        _ownedTokensCount[_to].increment();\r\n        reSale[_tokenId].isUpForResale = false;\r\n        emit Transfer(msg.sender, _to, _tokenId);\r\n    }\r\n\r\n\r\n    //Function to view the ipfshash of the token, the tokendata\r\n    /*\r\n    The real implementation wouldn't let the user view the tokendata\r\n    A digital handshake is what we need, between the token and the contract\r\n    where both agrees that the token holds the ipfshash. \r\n    Tokendata must never be out in the open like this. \r\n    But, alas.  \r\n    */\r\n    function viewTokenData(uint256 tokenId) public view returns(string memory){\r\n        require(_exists(tokenId), \"Token doesn't exist!\");\r\n        require(ownerOf(tokenId)==msg.sender, \"You are not the owner of this token!\");\r\n        return tokenData[tokenId].ipfsHash;\r\n    }\r\n/*\r\n    TO DO if time allows: \r\n    1.\r\n    scrap the above viewTokenData.\r\n    user gets access to file solely depending on \r\n    require(_tokenOwner[tokenId] == msg.sender);\r\n    because the whole gimmick is on this mapping. \r\n    So we don't need to provide ipfsHash inside the token. Solves that issue.\r\n\r\n    2.\r\n    add tokenmetadata(), where stuff (trinkets) that makes the token unique are added.\r\n*/\r\n}",
  "sourcePath": "/home/lakhan/Documents/mydapp/contracts/Resale.sol",
  "compiler": {
    "name": "solc",
    "version": "0.5.0+commit.1d4f565a.Emscripten.clang"
  },
  "schemaVersion": "3.0.1",
  "updatedAt": "2019-02-19T10:47:43.552Z",
  "devdoc": {
    "methods": {
      "name()": {
        "details": "Gets the token name",
        "return": "string representing the token name"
      },
      "symbol()": {
        "details": "Gets the token symbol",
        "return": "string representing the token symbol"
      }
    }
  },
  "userdoc": {
    "methods": {}
  }
}