{
  "contractName": "Tokenize",
  "abi": [
    {
      "anonymous": false,
      "inputs": [
        {
          "indexed": true,
          "name": "from",
          "type": "address"
        },
        {
          "indexed": true,
          "name": "to",
          "type": "address"
        },
        {
          "indexed": true,
          "name": "tokenId",
          "type": "uint256"
        }
      ],
      "name": "Transfer",
      "type": "event"
    },
    {
      "constant": true,
      "inputs": [],
      "name": "name",
      "outputs": [
        {
          "name": "",
          "type": "string"
        }
      ],
      "payable": false,
      "stateMutability": "view",
      "type": "function"
    },
    {
      "constant": true,
      "inputs": [],
      "name": "symbol",
      "outputs": [
        {
          "name": "",
          "type": "string"
        }
      ],
      "payable": false,
      "stateMutability": "view",
      "type": "function"
    },
    {
      "constant": true,
      "inputs": [
        {
          "name": "tokenId",
          "type": "uint256"
        }
      ],
      "name": "ownerOf",
      "outputs": [
        {
          "name": "",
          "type": "address"
        }
      ],
      "payable": false,
      "stateMutability": "view",
      "type": "function"
    },
    {
      "constant": false,
      "inputs": [
        {
          "name": "_title",
          "type": "string"
        },
        {
          "name": "_author",
          "type": "string"
        },
        {
          "name": "_ipfshash",
          "type": "string"
        },
        {
          "name": "_isbn",
          "type": "uint256"
        },
        {
          "name": "_price",
          "type": "uint256"
        },
        {
          "name": "_saleCommission",
          "type": "uint256"
        }
      ],
      "name": "addBookDetails",
      "outputs": [],
      "payable": false,
      "stateMutability": "nonpayable",
      "type": "function"
    },
    {
      "constant": false,
      "inputs": [],
      "name": "withdrawBalance",
      "outputs": [],
      "payable": true,
      "stateMutability": "payable",
      "type": "function"
    },
    {
      "constant": false,
      "inputs": [
        {
          "name": "isbn",
          "type": "uint256"
        }
      ],
      "name": "primaryBuy",
      "outputs": [
        {
          "name": "",
          "type": "bool"
        }
      ],
      "payable": true,
      "stateMutability": "payable",
      "type": "function"
    }
  ],
  "bytecode": "0x608060405234801561001057600080fd5b50610f89806100206000396000f3fe608060405260043610610078576000357c0100000000000000000000000000000000000000000000000000000000900463ffffffff16806306fdde031461007d5780635fd8c7101461010d5780636352211e1461011757806395d89b4114610192578063b118e70814610222578063d2efebbc14610268575b600080fd5b34801561008957600080fd5b5061009261047c565b6040518080602001828103825283818151815260200191508051906020019080838360005b838110156100d25780820151818401526020810190506100b7565b50505050905090810190601f1680156100ff5780820380516001836020036101000a031916815260200191505b509250505060405180910390f35b6101156104b9565b005b34801561012357600080fd5b506101506004803603602081101561013a57600080fd5b8101908080359060200190929190505050610664565b604051808273ffffffffffffffffffffffffffffffffffffffff1673ffffffffffffffffffffffffffffffffffffffff16815260200191505060405180910390f35b34801561019e57600080fd5b506101a76106e2565b6040518080602001828103825283818151815260200191508051906020019080838360005b838110156101e75780820151818401526020810190506101cc565b50505050905090810190601f1680156102145780820380516001836020036101000a031916815260200191505b509250505060405180910390f35b61024e6004803603602081101561023857600080fd5b810190808035906020019092919050505061071f565b604051808215151515815260200191505060405180910390f35b34801561027457600080fd5b5061047a600480360360c081101561028b57600080fd5b81019080803590602001906401000000008111156102a857600080fd5b8201836020820111156102ba57600080fd5b803590602001918460018302840111640100000000831117156102dc57600080fd5b91908080601f016020809104026020016040519081016040528093929190818152602001838380828437600081840152601f19601f8201169050808301925050505050505091929192908035906020019064010000000081111561033f57600080fd5b82018360208201111561035157600080fd5b8035906020019184600183028401116401000000008311171561037357600080fd5b91908080601f016020809104026020016040519081016040528093929190818152602001838380828437600081840152601f19601f820116905080830192505050505050509192919290803590602001906401000000008111156103d657600080fd5b8201836020820111156103e857600080fd5b8035906020019184600183028401116401000000008311171561040a57600080fd5b91908080601f016020809104026020016040519081016040528093929190818152602001838380828437600081840152601f19601f82011690508083019250505050505050919291929080359060200190929190803590602001909291908035906020019092919050505061094e565b005b60606040805190810160405280600d81526020017f44436f6e74656e74546f6b656e00000000000000000000000000000000000000815250905090565b6000600260003373ffffffffffffffffffffffffffffffffffffffff1673ffffffffffffffffffffffffffffffffffffffff1681526020019081526020016000205414151515610597576040517f08c379a00000000000000000000000000000000000000000000000000000000081526004018080602001828103825260268152602001807f596f7520646f6e2774206861766520616e792062616c616e636520746f20776981526020017f746864726177000000000000000000000000000000000000000000000000000081525060400191505060405180910390fd5b3373ffffffffffffffffffffffffffffffffffffffff166108fc600260003373ffffffffffffffffffffffffffffffffffffffff1673ffffffffffffffffffffffffffffffffffffffff168152602001908152602001600020549081150290604051600060405180830381858888f1935050505015801561061c573d6000803e3d6000fd5b506000600260003373ffffffffffffffffffffffffffffffffffffffff1673ffffffffffffffffffffffffffffffffffffffff16815260200190815260200160002081905550565b6000806003600084815260200190815260200160002060009054906101000a900473ffffffffffffffffffffffffffffffffffffffff169050600073ffffffffffffffffffffffffffffffffffffffff168173ffffffffffffffffffffffffffffffffffffffff16141515156106d957600080fd5b80915050919050565b60606040805190810160405280600381526020017f4443540000000000000000000000000000000000000000000000000000000000815250905090565b60008073ffffffffffffffffffffffffffffffffffffffff1660008084815260200190815260200160002060030160009054906101000a900473ffffffffffffffffffffffffffffffffffffffff1673ffffffffffffffffffffffffffffffffffffffff16141515156107fa576040517f08c379a00000000000000000000000000000000000000000000000000000000081526004018080602001828103825260158152602001807f4953424e20646f6573206e6f742065786973742021000000000000000000000081525060200191505060405180910390fd5b6001600083815260200190815260200160002054341415156108aa576040517f08c379a000000000000000000000000000000000000000000000000000000000815260040180806020018281038252603f8152602001807f496e73756666696369656e742066756e6473202120506c65617365207061792081526020017f746865207072696365206173207365742062792074686520617574686f722e0081525060400191505060405180910390fd5b60006108b583610a5d565b90506108c2338285610ac9565b346002600080600087815260200190815260200160002060030160009054906101000a900473ffffffffffffffffffffffffffffffffffffffff1673ffffffffffffffffffffffffffffffffffffffff1673ffffffffffffffffffffffffffffffffffffffff168152602001908152602001600020600082825401925050819055506001915050919050565b856000808581526020019081526020016000206000019080519060200190610977929190610e31565b508460008085815260200190815260200160002060010190805190602001906109a1929190610e31565b508360008085815260200190815260200160002060020190805190602001906109cb929190610e31565b503360008085815260200190815260200160002060030160006101000a81548173ffffffffffffffffffffffffffffffffffffffff021916908373ffffffffffffffffffffffffffffffffffffffff1602179055508060008085815260200190815260200160002060040181905550600182026001600085815260200190815260200160002081905550505050505050565b600060066000815480929190600101919050555060006298968083426006546040516020018084815260200183815260200182815260200193505050506040516020818303038152906040528051906020012060019004811515610abd57fe5b06905080915050919050565b600073ffffffffffffffffffffffffffffffffffffffff168373ffffffffffffffffffffffffffffffffffffffff1614151515610b6e576040517f08c379a00000000000000000000000000000000000000000000000000000000081526004018080602001828103825260128152602001807f41646472657373283029204572726f722021000000000000000000000000000081525060200191505060405180910390fd5b826003600084815260200190815260200160002060006101000a81548173ffffffffffffffffffffffffffffffffffffffff021916908373ffffffffffffffffffffffffffffffffffffffff160217905550610bc982610da9565b151515610c3e576040517f08c379a00000000000000000000000000000000000000000000000000000000081526004018080602001828103825260198152602001807f546f6b656e20494420646f6573206e6f7420657869737420210000000000000081525060200191505060405180910390fd5b610c85600560008573ffffffffffffffffffffffffffffffffffffffff1673ffffffffffffffffffffffffffffffffffffffff168152602001908152602001600020610e1b565b6001600082815260200190815260200160002054600760008481526020019081526020016000206000018190555060006007600084815260200190815260200160002060010160006101000a81548160ff021916908315150217905550806007600084815260200190815260200160002060020181905550600080828152602001908152602001600020600201600860008481526020019081526020016000206000019080546001816001161561010002031660029004610d47929190610eb1565b50818373ffffffffffffffffffffffffffffffffffffffff16600073ffffffffffffffffffffffffffffffffffffffff167fddf252ad1be2c89b69c2b068fc378daa952ba7f163c4a11628f55a4df523b3ef60405160405180910390a4505050565b6000806003600084815260200190815260200160002060009054906101000a900473ffffffffffffffffffffffffffffffffffffffff169050600073ffffffffffffffffffffffffffffffffffffffff168173ffffffffffffffffffffffffffffffffffffffff161415915050919050565b6001816000016000828254019250508190555050565b828054600181600116156101000203166002900490600052602060002090601f016020900481019282601f10610e7257805160ff1916838001178555610ea0565b82800160010185558215610ea0579182015b82811115610e9f578251825591602001919060010190610e84565b5b509050610ead9190610f38565b5090565b828054600181600116156101000203166002900490600052602060002090601f016020900481019282601f10610eea5780548555610f27565b82800160010185558215610f2757600052602060002091601f016020900482015b82811115610f26578254825591600101919060010190610f0b565b5b509050610f349190610f38565b5090565b610f5a91905b80821115610f56576000816000905550600101610f3e565b5090565b9056fea165627a7a72305820366c6b65cfaaf0a201435242eb969c6701039097deff3c855b38fa4d55e6cfe90029",
  "source": "pragma solidity ^0.5.0;\nimport \"./PublishBook.sol\";\nimport \"./Address.sol\";\nimport \"./SafeMath.sol\";\nimport \"./Counters.sol\";\n\n\ncontract Tokenize is PublishBook {\n\n    using SafeMath for uint256;\n    using Address for address;\n    using Counters for Counters.Counter;\n\n    // Equals to `bytes4(keccak256(\"onERC721Received(address,address,uint256,bytes)\"))`\n    // which can be also obtained as `IERC721Receiver(0).onERC721Received.selector`\n    bytes4 private constant _ERC721_RECEIVED = 0x150b7a02;\n\n    // Mapping from token ID to owner\n    mapping (uint256 => address) internal _tokenOwner;\n\n    // Mapping from token ID to approved address\n    mapping (uint256 => address) internal _tokenApprovals;\n\n    // Mapping from owner to number of owned token\n    mapping (address => Counters.Counter) internal _ownedTokensCount;\n\n\n\n    event Transfer(address indexed from, address indexed to, uint256 indexed tokenId);\n    \n    uint256 tokenCounter; //arbitrary counter to help generate unique tokenID\n\n\n    struct Reselling{\n        uint256 resalePrice;\n        bool isUpForResale;\n        uint256 ISBN;\n    }\n\n    //tokenID to Reselling mapping\n    mapping (uint256 => Reselling) internal reSale;\n\n    // a wild try. This will be the tokendata.\n    struct tokenIPFS{\n        string ipfsHash; \n    }\n\n    //tokenId to tokenIPFS mapping\n    mapping(uint256 => tokenIPFS) internal tokenData;  \n    \n\n    /**\n     * @dev Gets the token name\n     * @return string representing the token name\n     */\n    function name() external view returns (string memory) {\n        return \"DContentToken\";\n    }\n\n    /**\n     * @dev Gets the token symbol\n     * @return string representing the token symbol\n     */\n    function symbol() external view returns (string memory) {\n        return \"DCT\";\n    }\n\n    function _exists(uint256 tokenId) internal view returns (bool) {\n        address owner = _tokenOwner[tokenId];\n        return owner != address(0);\n    }\n\n    function ownerOf(uint256 tokenId) public view returns (address) {\n        address owner = _tokenOwner[tokenId];\n        require(owner != address(0));\n        return owner;\n    }\n\n       \n    //tokenId a value that will be less than 10,000,000 \n    function generateTokenID(uint256 isbn) private returns(uint256){\n        tokenCounter++;\n        uint256 tokenid = uint256(keccak256(abi.encodePacked(isbn, now,tokenCounter))) % 10000000;\n        return(tokenid);\n    }\n\n   \n    function _mint(address to, uint256 tokenId, uint256 isbn) internal {\n        require(to != address(0),\"Address(0) Error !\");\n        _tokenOwner[tokenId] = to;\n        require(!_exists(tokenId),\"Token ID does not exist !\");\n        _ownedTokensCount[to].increment();\n\n        //resalePrice set to initial MRP by default\n        reSale[tokenId].resalePrice = setPrice[isbn];\n        //token is not up for resale by default; the owner needs to put it up for sale\n        reSale[tokenId].isUpForResale = false;\n        reSale[tokenId].ISBN = isbn;\n        tokenData[tokenId].ipfsHash = fileinfo[isbn].ipfsHash;        \n        \n        emit Transfer(address(0), to, tokenId);\n    }\n\n\n    // /**\n    //  * @dev Internal function to set the token URI for a given token\n    //  * Reverts if the token ID does not exist\n    //  * @param tokenId uint256 ID of the token to set its URI\n    //  * @param uri string URI to assign\n    //  */\n    // function _setTokenURI(uint256 tokenId, string memory uri) internal {\n    //     require(_exists(tokenId),\"Token ID does not exist !\");\n    //     _tokenURIs[tokenId] = uri;\n    // }\n\n    function addBookDetails (string memory _title, string memory _author, string memory _ipfshash, uint256 _isbn, uint256 _price, uint256 _saleCommission) public {       \n        fileinfo[_isbn].bookTitle = _title;\n        fileinfo[_isbn].authorName = _author;\n        fileinfo[_isbn].ipfsHash = _ipfshash;\n        fileinfo[_isbn].publisherAddress = msg.sender;\n        fileinfo[_isbn].saleCommission = _saleCommission;\n        setPrice[_isbn] = _price*1 wei;\n  \n    }  \n\n    function withdrawBalance() public payable{\n        require(publisherBalance[msg.sender]!=0, \"You don't have any balance to withdraw\");    \n        (msg.sender).transfer(publisherBalance[msg.sender]);\n        publisherBalance[msg.sender] = 0;\n    }\n\n \n     //TO-DO: send struct as token metadata !!!\n    function primaryBuy(uint isbn) public payable returns (bool) {\n        //to revert back if the buyer doesn't have the price by the author.\n        require(fileinfo[isbn].publisherAddress != address(0),\"ISBN does not exist !\");\n        require(msg.value == setPrice[isbn],\"Insufficient funds ! Please pay the price as set by the author.\");\n        uint256 tokenId = generateTokenID(isbn);       \n        _mint(msg.sender, tokenId,isbn);\n        // _setTokenURI(tokenId, tokenURI);\n\n        //publisher's balance gets updated    \n        publisherBalance[fileinfo[isbn].publisherAddress] += msg.value;\n        return true;\n    }  \n\n    //function to retreive funds from contract into publisher's account.\n    // function sendTo(address _payee, uint256 _amount) public onlyOwner {\n\n    //     require(_payee != address(0) && _payee != address(this),\"Address(0) Erorr !\");\n    //     require(_amount > 0 && _amount <= address(this).balance,\"No funds in contract !\");\n    //     _payee.transfer(_amount);\n    //     emit Sent(_payee, _amount, address(this).balance);\n\n\n    // }\n\n}\n",
  "sourcePath": "/home/lakhan/Documents/mydapp/contracts/Tokenize.sol",
  "compiler": {
    "name": "solc",
    "version": "0.5.0+commit.1d4f565a.Emscripten.clang"
  },
  "schemaVersion": "3.0.1",
  "updatedAt": "2019-02-19T10:46:13.546Z",
  "devdoc": {
    "methods": {
      "name()": {
        "details": "Gets the token name",
        "return": "string representing the token name"
      },
      "symbol()": {
        "details": "Gets the token symbol",
        "return": "string representing the token symbol"
      }
    }
  },
  "userdoc": {
    "methods": {}
  }
}